{
  "contractName": "CaseManagement",
  "abi": [
    {
      "anonymous": false,
      "inputs": [
        {
          "indexed": false,
          "internalType": "string",
          "name": "caseNumber",
          "type": "string"
        },
        {
          "indexed": false,
          "internalType": "string",
          "name": "fileHash",
          "type": "string"
        }
      ],
      "name": "CaseAdded",
      "type": "event"
    },
    {
      "anonymous": false,
      "inputs": [
        {
          "indexed": false,
          "internalType": "string",
          "name": "caseNumber",
          "type": "string"
        },
        {
          "indexed": false,
          "internalType": "address",
          "name": "sender",
          "type": "address"
        },
        {
          "indexed": false,
          "internalType": "address",
          "name": "receiver",
          "type": "address"
        },
        {
          "indexed": false,
          "internalType": "string",
          "name": "fileHash",
          "type": "string"
        }
      ],
      "name": "TransactionAdded",
      "type": "event"
    },
    {
      "inputs": [
        {
          "internalType": "string",
          "name": "",
          "type": "string"
        }
      ],
      "name": "caseFileHash",
      "outputs": [
        {
          "internalType": "string",
          "name": "",
          "type": "string"
        }
      ],
      "stateMutability": "view",
      "type": "function",
      "constant": true
    },
    {
      "inputs": [
        {
          "internalType": "uint256",
          "name": "",
          "type": "uint256"
        }
      ],
      "name": "transactions",
      "outputs": [
        {
          "internalType": "string",
          "name": "caseNumber",
          "type": "string"
        },
        {
          "internalType": "address",
          "name": "sender",
          "type": "address"
        },
        {
          "internalType": "address",
          "name": "receiver",
          "type": "address"
        },
        {
          "internalType": "string",
          "name": "fileHash",
          "type": "string"
        }
      ],
      "stateMutability": "view",
      "type": "function",
      "constant": true
    },
    {
      "inputs": [
        {
          "internalType": "string",
          "name": "_caseNumber",
          "type": "string"
        },
        {
          "internalType": "string",
          "name": "_fileHash",
          "type": "string"
        }
      ],
      "name": "addCase",
      "outputs": [],
      "stateMutability": "nonpayable",
      "type": "function"
    },
    {
      "inputs": [
        {
          "internalType": "string",
          "name": "_caseNumber",
          "type": "string"
        },
        {
          "internalType": "address",
          "name": "_receiver",
          "type": "address"
        },
        {
          "internalType": "string",
          "name": "_fileHash",
          "type": "string"
        }
      ],
      "name": "addTransaction",
      "outputs": [],
      "stateMutability": "nonpayable",
      "type": "function"
    },
    {
      "inputs": [],
      "name": "getTransactionCount",
      "outputs": [
        {
          "internalType": "uint256",
          "name": "",
          "type": "uint256"
        }
      ],
      "stateMutability": "view",
      "type": "function",
      "constant": true
    },
    {
      "inputs": [
        {
          "internalType": "uint256",
          "name": "index",
          "type": "uint256"
        }
      ],
      "name": "getTransaction",
      "outputs": [
        {
          "internalType": "string",
          "name": "",
          "type": "string"
        },
        {
          "internalType": "address",
          "name": "",
          "type": "address"
        },
        {
          "internalType": "address",
          "name": "",
          "type": "address"
        },
        {
          "internalType": "string",
          "name": "",
          "type": "string"
        }
      ],
      "stateMutability": "view",
      "type": "function",
      "constant": true
    }
  ],
  "bytecode": "0x608060405234801561001057600080fd5b50610e8e806100206000396000f3fe608060405234801561001057600080fd5b50600436106100625760003560e01c80632e7700f01461006757806333ea3dc8146100855780636dcebcfb146100b85780638500c1b5146100e85780638953ae08146101045780639ace38c214610120575b600080fd5b61006f610153565b60405161007c9190610c68565b60405180910390f35b61009f600480360381019061009a9190610a94565b610160565b6040516100af9493929190610bbe565b60405180910390f35b6100d260048036038101906100cd9190610968565b6103f9565b6040516100df9190610b9c565b60405180910390f35b61010260048036038101906100fd91906109a9565b6104af565b005b61011e60048036038101906101199190610a28565b610633565b005b61013a60048036038101906101359190610a94565b6106a3565b60405161014a9493929190610bbe565b60405180910390f35b6000600180549050905090565b6060600080606060018054905085106101ae576040517f08c379a00000000000000000000000000000000000000000000000000000000081526004016101a590610c48565b60405180910390fd5b6000600186815481106101ea577f4e487b7100000000000000000000000000000000000000000000000000000000600052603260045260246000fd5b906000526020600020906004020160405180608001604052908160008201805461021390610d89565b80601f016020809104026020016040519081016040528092919081815260200182805461023f90610d89565b801561028c5780601f106102615761010080835404028352916020019161028c565b820191906000526020600020905b81548152906001019060200180831161026f57829003601f168201915b505050505081526020016001820160009054906101000a900473ffffffffffffffffffffffffffffffffffffffff1673ffffffffffffffffffffffffffffffffffffffff1673ffffffffffffffffffffffffffffffffffffffff1681526020016002820160009054906101000a900473ffffffffffffffffffffffffffffffffffffffff1673ffffffffffffffffffffffffffffffffffffffff1673ffffffffffffffffffffffffffffffffffffffff16815260200160038201805461035190610d89565b80601f016020809104026020016040519081016040528092919081815260200182805461037d90610d89565b80156103ca5780601f1061039f576101008083540402835291602001916103ca565b820191906000526020600020905b8154815290600101906020018083116103ad57829003601f168201915b505050505081525050905080600001518160200151826040015183606001519450945094509450509193509193565b600081805160208101820180518482526020830160208501208183528095505050505050600091509050805461042e90610d89565b80601f016020809104026020016040519081016040528092919081815260200182805461045a90610d89565b80156104a75780601f1061047c576101008083540402835291602001916104a7565b820191906000526020600020905b81548152906001019060200180831161048a57829003601f168201915b505050505081565b600160405180608001604052808581526020013373ffffffffffffffffffffffffffffffffffffffff1681526020018473ffffffffffffffffffffffffffffffffffffffff1681526020018381525090806001815401808255809150506001900390600052602060002090600402016000909190919091506000820151816000019080519060200190610543929190610833565b5060208201518160010160006101000a81548173ffffffffffffffffffffffffffffffffffffffff021916908373ffffffffffffffffffffffffffffffffffffffff16021790555060408201518160020160006101000a81548173ffffffffffffffffffffffffffffffffffffffff021916908373ffffffffffffffffffffffffffffffffffffffff16021790555060608201518160030190805190602001906105ee929190610833565b5050507fec87caf4db4d74e32d60a174e3028445e890352c91350dde101488d2719fb07f833384846040516106269493929190610bbe565b60405180910390a1505050565b806000836040516106449190610b85565b90815260200160405180910390209080519060200190610665929190610833565b507ff7787ca269c9ae36d8d04ed81786ec77003e1294fe68729a78e891d58541ed1d8282604051610697929190610c11565b60405180910390a15050565b600181815481106106b357600080fd5b90600052602060002090600402016000915090508060000180546106d690610d89565b80601f016020809104026020016040519081016040528092919081815260200182805461070290610d89565b801561074f5780601f106107245761010080835404028352916020019161074f565b820191906000526020600020905b81548152906001019060200180831161073257829003601f168201915b5050505050908060010160009054906101000a900473ffffffffffffffffffffffffffffffffffffffff16908060020160009054906101000a900473ffffffffffffffffffffffffffffffffffffffff16908060030180546107b090610d89565b80601f01602080910402602001604051908101604052809291908181526020018280546107dc90610d89565b80156108295780601f106107fe57610100808354040283529160200191610829565b820191906000526020600020905b81548152906001019060200180831161080c57829003601f168201915b5050505050905084565b82805461083f90610d89565b90600052602060002090601f01602090048101928261086157600085556108a8565b82601f1061087a57805160ff19168380011785556108a8565b828001600101855582156108a8579182015b828111156108a757825182559160200191906001019061088c565b5b5090506108b591906108b9565b5090565b5b808211156108d25760008160009055506001016108ba565b5090565b60006108e96108e484610cb4565b610c83565b90508281526020810184848401111561090157600080fd5b61090c848285610d47565b509392505050565b60008135905061092381610e2a565b92915050565b600082601f83011261093a57600080fd5b813561094a8482602086016108d6565b91505092915050565b60008135905061096281610e41565b92915050565b60006020828403121561097a57600080fd5b600082013567ffffffffffffffff81111561099457600080fd5b6109a084828501610929565b91505092915050565b6000806000606084860312156109be57600080fd5b600084013567ffffffffffffffff8111156109d857600080fd5b6109e486828701610929565b93505060206109f586828701610914565b925050604084013567ffffffffffffffff811115610a1257600080fd5b610a1e86828701610929565b9150509250925092565b60008060408385031215610a3b57600080fd5b600083013567ffffffffffffffff811115610a5557600080fd5b610a6185828601610929565b925050602083013567ffffffffffffffff811115610a7e57600080fd5b610a8a85828601610929565b9150509250929050565b600060208284031215610aa657600080fd5b6000610ab484828501610953565b91505092915050565b610ac681610d0b565b82525050565b6000610ad782610ce4565b610ae18185610cef565b9350610af1818560208601610d56565b610afa81610e19565b840191505092915050565b6000610b1082610ce4565b610b1a8185610d00565b9350610b2a818560208601610d56565b80840191505092915050565b6000610b43601f83610cef565b91507f5472616e73616374696f6e20696e646578206f7574206f6620626f756e6473006000830152602082019050919050565b610b7f81610d3d565b82525050565b6000610b918284610b05565b915081905092915050565b60006020820190508181036000830152610bb68184610acc565b905092915050565b60006080820190508181036000830152610bd88187610acc565b9050610be76020830186610abd565b610bf46040830185610abd565b8181036060830152610c068184610acc565b905095945050505050565b60006040820190508181036000830152610c2b8185610acc565b90508181036020830152610c3f8184610acc565b90509392505050565b60006020820190508181036000830152610c6181610b36565b9050919050565b6000602082019050610c7d6000830184610b76565b92915050565b6000604051905081810181811067ffffffffffffffff82111715610caa57610ca9610dea565b5b8060405250919050565b600067ffffffffffffffff821115610ccf57610cce610dea565b5b601f19601f8301169050602081019050919050565b600081519050919050565b600082825260208201905092915050565b600081905092915050565b6000610d1682610d1d565b9050919050565b600073ffffffffffffffffffffffffffffffffffffffff82169050919050565b6000819050919050565b82818337600083830152505050565b60005b83811015610d74578082015181840152602081019050610d59565b83811115610d83576000848401525b50505050565b60006002820490506001821680610da157607f821691505b60208210811415610db557610db4610dbb565b5b50919050565b7f4e487b7100000000000000000000000000000000000000000000000000000000600052602260045260246000fd5b7f4e487b7100000000000000000000000000000000000000000000000000000000600052604160045260246000fd5b6000601f19601f8301169050919050565b610e3381610d0b565b8114610e3e57600080fd5b50565b610e4a81610d3d565b8114610e5557600080fd5b5056fea2646970667358221220e82920f08aa4c854aa3e1a7c2c8bb66556b906435a676077a5ceb2d2685388a264736f6c63430008000033",
  "immutableReferences": {},
  "source": "// SPDX-License-Identifier: MIT\r\npragma solidity ^0.8.0;\r\n\r\ncontract CaseManagement {\r\n    struct Transaction {\r\n        string caseNumber;\r\n        address sender;\r\n        address receiver;\r\n        string fileHash;\r\n    }\r\n\r\n    mapping(string => string) public caseFileHash;\r\n    Transaction[] public transactions;\r\n\r\n    event CaseAdded(string caseNumber, string fileHash);\r\n    event TransactionAdded(string caseNumber, address sender, address receiver, string fileHash);\r\n\r\n    function addCase(string memory _caseNumber, string memory _fileHash) public {\r\n        caseFileHash[_caseNumber] = _fileHash;\r\n        emit CaseAdded(_caseNumber, _fileHash);\r\n    }\r\n\r\n    function addTransaction(string memory _caseNumber, address _receiver, string memory _fileHash) public {\r\n        transactions.push(Transaction(_caseNumber, msg.sender, _receiver, _fileHash));\r\n        emit TransactionAdded(_caseNumber, msg.sender, _receiver, _fileHash);\r\n    }\r\n\r\n    function getTransactionCount() public view returns (uint) {\r\n        return transactions.length;\r\n    }\r\n\r\n    function getTransaction(uint index) public view returns (string memory, address, address, string memory) {\r\n        require(index < transactions.length, \"Transaction index out of bounds\");\r\n        Transaction memory txn = transactions[index];\r\n        return (txn.caseNumber, txn.sender, txn.receiver, txn.fileHash);\r\n    }\r\n}\r\n",
  "sourcePath": "C:\\Sherwin\\Codes\\testing\\legal-auth-system\\frontend\\contracts\\CaseManagement.sol",
  "compiler": {
    "name": "solc",
    "version": "0.8.0+commit.c7dfd78e.Emscripten.clang"
  },
  "schemaVersion": "3.4.16",
  "updatedAt": "2025-03-06T14:24:09.819Z",
  "networkType": "ethereum",
  "devdoc": {
    "kind": "dev",
    "methods": {},
    "version": 1
  },
  "userdoc": {
    "kind": "user",
    "methods": {},
    "version": 1
  }
}